{
  "_format": "hh3-artifact-1",
  "contractName": "MiniVault",
  "sourceName": "contracts/MiniVault.sol",
  "abi": [
    {
      "inputs": [
        {
          "internalType": "address",
          "name": "_stETH",
          "type": "address"
        },
        {
          "internalType": "address",
          "name": "_mUSD",
          "type": "address"
        },
        {
          "internalType": "address",
          "name": "_oracle",
          "type": "address"
        },
        {
          "internalType": "address",
          "name": "_treasury",
          "type": "address"
        },
        {
          "internalType": "address",
          "name": "_timelock",
          "type": "address"
        }
      ],
      "stateMutability": "nonpayable",
      "type": "constructor"
    },
    {
      "inputs": [],
      "name": "AccessControlBadConfirmation",
      "type": "error"
    },
    {
      "inputs": [
        {
          "internalType": "address",
          "name": "account",
          "type": "address"
        },
        {
          "internalType": "bytes32",
          "name": "neededRole",
          "type": "bytes32"
        }
      ],
      "name": "AccessControlUnauthorizedAccount",
      "type": "error"
    },
    {
      "inputs": [],
      "name": "ReentrancyGuardReentrantCall",
      "type": "error"
    },
    {
      "anonymous": false,
      "inputs": [
        {
          "indexed": true,
          "internalType": "address",
          "name": "user",
          "type": "address"
        },
        {
          "indexed": false,
          "internalType": "uint256",
          "name": "mUSDAmount",
          "type": "uint256"
        },
        {
          "indexed": false,
          "internalType": "uint256",
          "name": "fee",
          "type": "uint256"
        }
      ],
      "name": "Borrow",
      "type": "event"
    },
    {
      "anonymous": false,
      "inputs": [
        {
          "indexed": true,
          "internalType": "address",
          "name": "user",
          "type": "address"
        },
        {
          "indexed": false,
          "internalType": "uint256",
          "name": "amount",
          "type": "uint256"
        }
      ],
      "name": "DepositCollateral",
      "type": "event"
    },
    {
      "anonymous": false,
      "inputs": [
        {
          "indexed": true,
          "internalType": "address",
          "name": "user",
          "type": "address"
        },
        {
          "indexed": false,
          "internalType": "uint256",
          "name": "amount",
          "type": "uint256"
        },
        {
          "indexed": false,
          "internalType": "uint256",
          "name": "stETHAmount",
          "type": "uint256"
        }
      ],
      "name": "DepositETH",
      "type": "event"
    },
    {
      "anonymous": false,
      "inputs": [
        {
          "indexed": false,
          "internalType": "uint256",
          "name": "oldRate",
          "type": "uint256"
        },
        {
          "indexed": false,
          "internalType": "uint256",
          "name": "newRate",
          "type": "uint256"
        }
      ],
      "name": "ExchangeRateUpdated",
      "type": "event"
    },
    {
      "anonymous": false,
      "inputs": [
        {
          "indexed": false,
          "internalType": "uint256",
          "name": "toStETH",
          "type": "uint256"
        },
        {
          "indexed": false,
          "internalType": "uint256",
          "name": "toTreasury",
          "type": "uint256"
        }
      ],
      "name": "InterestDistributed",
      "type": "event"
    },
    {
      "anonymous": false,
      "inputs": [
        {
          "indexed": true,
          "internalType": "address",
          "name": "liquidator",
          "type": "address"
        },
        {
          "indexed": true,
          "internalType": "address",
          "name": "borrower",
          "type": "address"
        },
        {
          "indexed": false,
          "internalType": "uint256",
          "name": "debtRepaid",
          "type": "uint256"
        },
        {
          "indexed": false,
          "internalType": "uint256",
          "name": "collateralSeized",
          "type": "uint256"
        },
        {
          "indexed": false,
          "internalType": "uint256",
          "name": "fee",
          "type": "uint256"
        }
      ],
      "name": "Liquidate",
      "type": "event"
    },
    {
      "anonymous": false,
      "inputs": [
        {
          "indexed": false,
          "internalType": "string",
          "name": "paramName",
          "type": "string"
        },
        {
          "indexed": false,
          "internalType": "uint256",
          "name": "oldValue",
          "type": "uint256"
        },
        {
          "indexed": false,
          "internalType": "uint256",
          "name": "newValue",
          "type": "uint256"
        }
      ],
      "name": "ParamsUpdated",
      "type": "event"
    },
    {
      "anonymous": false,
      "inputs": [
        {
          "indexed": true,
          "internalType": "address",
          "name": "account",
          "type": "address"
        }
      ],
      "name": "Paused",
      "type": "event"
    },
    {
      "anonymous": false,
      "inputs": [
        {
          "indexed": true,
          "internalType": "address",
          "name": "user",
          "type": "address"
        },
        {
          "indexed": false,
          "internalType": "uint256",
          "name": "amount",
          "type": "uint256"
        }
      ],
      "name": "Repay",
      "type": "event"
    },
    {
      "anonymous": false,
      "inputs": [
        {
          "indexed": true,
          "internalType": "bytes32",
          "name": "role",
          "type": "bytes32"
        },
        {
          "indexed": true,
          "internalType": "bytes32",
          "name": "previousAdminRole",
          "type": "bytes32"
        },
        {
          "indexed": true,
          "internalType": "bytes32",
          "name": "newAdminRole",
          "type": "bytes32"
        }
      ],
      "name": "RoleAdminChanged",
      "type": "event"
    },
    {
      "anonymous": false,
      "inputs": [
        {
          "indexed": true,
          "internalType": "bytes32",
          "name": "role",
          "type": "bytes32"
        },
        {
          "indexed": true,
          "internalType": "address",
          "name": "account",
          "type": "address"
        },
        {
          "indexed": true,
          "internalType": "address",
          "name": "sender",
          "type": "address"
        }
      ],
      "name": "RoleGranted",
      "type": "event"
    },
    {
      "anonymous": false,
      "inputs": [
        {
          "indexed": true,
          "internalType": "bytes32",
          "name": "role",
          "type": "bytes32"
        },
        {
          "indexed": true,
          "internalType": "address",
          "name": "account",
          "type": "address"
        },
        {
          "indexed": true,
          "internalType": "address",
          "name": "sender",
          "type": "address"
        }
      ],
      "name": "RoleRevoked",
      "type": "event"
    },
    {
      "anonymous": false,
      "inputs": [
        {
          "indexed": true,
          "internalType": "address",
          "name": "account",
          "type": "address"
        }
      ],
      "name": "Unpaused",
      "type": "event"
    },
    {
      "anonymous": false,
      "inputs": [
        {
          "indexed": true,
          "internalType": "address",
          "name": "user",
          "type": "address"
        },
        {
          "indexed": false,
          "internalType": "uint256",
          "name": "amount",
          "type": "uint256"
        },
        {
          "indexed": false,
          "internalType": "uint256",
          "name": "ethReceived",
          "type": "uint256"
        }
      ],
      "name": "WithdrawCollateral",
      "type": "event"
    },
    {
      "inputs": [],
      "name": "BASE",
      "outputs": [
        {
          "internalType": "uint256",
          "name": "",
          "type": "uint256"
        }
      ],
      "stateMutability": "view",
      "type": "function"
    },
    {
      "inputs": [],
      "name": "DEFAULT_ADMIN_ROLE",
      "outputs": [
        {
          "internalType": "bytes32",
          "name": "",
          "type": "bytes32"
        }
      ],
      "stateMutability": "view",
      "type": "function"
    },
    {
      "inputs": [],
      "name": "INTEREST_TREASURY_SHARE",
      "outputs": [
        {
          "internalType": "uint256",
          "name": "",
          "type": "uint256"
        }
      ],
      "stateMutability": "view",
      "type": "function"
    },
    {
      "inputs": [],
      "name": "LIQUIDATION_DISCOUNT",
      "outputs": [
        {
          "internalType": "uint256",
          "name": "",
          "type": "uint256"
        }
      ],
      "stateMutability": "view",
      "type": "function"
    },
    {
      "inputs": [],
      "name": "LIQUIDATION_MAX_PCT",
      "outputs": [
        {
          "internalType": "uint256",
          "name": "",
          "type": "uint256"
        }
      ],
      "stateMutability": "view",
      "type": "function"
    },
    {
      "inputs": [],
      "name": "LIQUIDATION_TREASURY_FEE",
      "outputs": [
        {
          "internalType": "uint256",
          "name": "",
          "type": "uint256"
        }
      ],
      "stateMutability": "view",
      "type": "function"
    },
    {
      "inputs": [],
      "name": "PAUSER_ROLE",
      "outputs": [
        {
          "internalType": "bytes32",
          "name": "",
          "type": "bytes32"
        }
      ],
      "stateMutability": "view",
      "type": "function"
    },
    {
      "inputs": [],
      "name": "RATE_UPDATE_INTERVAL",
      "outputs": [
        {
          "internalType": "uint256",
          "name": "",
          "type": "uint256"
        }
      ],
      "stateMutability": "view",
      "type": "function"
    },
    {
      "inputs": [],
      "name": "TIMELOCK_ROLE",
      "outputs": [
        {
          "internalType": "bytes32",
          "name": "",
          "type": "bytes32"
        }
      ],
      "stateMutability": "view",
      "type": "function"
    },
    {
      "inputs": [
        {
          "internalType": "uint256",
          "name": "mUSDAmount",
          "type": "uint256"
        }
      ],
      "name": "borrow",
      "outputs": [],
      "stateMutability": "nonpayable",
      "type": "function"
    },
    {
      "inputs": [],
      "name": "borrowAPR",
      "outputs": [
        {
          "internalType": "uint256",
          "name": "",
          "type": "uint256"
        }
      ],
      "stateMutability": "view",
      "type": "function"
    },
    {
      "inputs": [],
      "name": "borrowFeePct",
      "outputs": [
        {
          "internalType": "uint256",
          "name": "",
          "type": "uint256"
        }
      ],
      "stateMutability": "view",
      "type": "function"
    },
    {
      "inputs": [],
      "name": "borrowLimitPct",
      "outputs": [
        {
          "internalType": "uint256",
          "name": "",
          "type": "uint256"
        }
      ],
      "stateMutability": "view",
      "type": "function"
    },
    {
      "inputs": [
        {
          "internalType": "uint256",
          "name": "amount",
          "type": "uint256"
        }
      ],
      "name": "depositCollateral",
      "outputs": [],
      "stateMutability": "nonpayable",
      "type": "function"
    },
    {
      "inputs": [],
      "name": "depositETH",
      "outputs": [],
      "stateMutability": "payable",
      "type": "function"
    },
    {
      "inputs": [
        {
          "internalType": "address",
          "name": "token",
          "type": "address"
        },
        {
          "internalType": "uint256",
          "name": "amount",
          "type": "uint256"
        },
        {
          "internalType": "address",
          "name": "to",
          "type": "address"
        }
      ],
      "name": "emergencyWithdraw",
      "outputs": [],
      "stateMutability": "nonpayable",
      "type": "function"
    },
    {
      "inputs": [
        {
          "internalType": "address",
          "name": "user",
          "type": "address"
        }
      ],
      "name": "getBorrowLimit",
      "outputs": [
        {
          "internalType": "uint256",
          "name": "",
          "type": "uint256"
        }
      ],
      "stateMutability": "view",
      "type": "function"
    },
    {
      "inputs": [
        {
          "internalType": "address",
          "name": "user",
          "type": "address"
        }
      ],
      "name": "getHealthFactor",
      "outputs": [
        {
          "internalType": "uint256",
          "name": "",
          "type": "uint256"
        }
      ],
      "stateMutability": "view",
      "type": "function"
    },
    {
      "inputs": [
        {
          "internalType": "address",
          "name": "user",
          "type": "address"
        }
      ],
      "name": "getPosition",
      "outputs": [
        {
          "internalType": "uint256",
          "name": "collateral",
          "type": "uint256"
        },
        {
          "internalType": "uint256",
          "name": "debt",
          "type": "uint256"
        },
        {
          "internalType": "uint256",
          "name": "initialDebt",
          "type": "uint256"
        },
        {
          "internalType": "uint256",
          "name": "lastUpdate",
          "type": "uint256"
        }
      ],
      "stateMutability": "view",
      "type": "function"
    },
    {
      "inputs": [
        {
          "internalType": "bytes32",
          "name": "role",
          "type": "bytes32"
        }
      ],
      "name": "getRoleAdmin",
      "outputs": [
        {
          "internalType": "bytes32",
          "name": "",
          "type": "bytes32"
        }
      ],
      "stateMutability": "view",
      "type": "function"
    },
    {
      "inputs": [
        {
          "internalType": "bytes32",
          "name": "role",
          "type": "bytes32"
        },
        {
          "internalType": "address",
          "name": "account",
          "type": "address"
        }
      ],
      "name": "grantRole",
      "outputs": [],
      "stateMutability": "nonpayable",
      "type": "function"
    },
    {
      "inputs": [
        {
          "internalType": "bytes32",
          "name": "role",
          "type": "bytes32"
        },
        {
          "internalType": "address",
          "name": "account",
          "type": "address"
        }
      ],
      "name": "hasRole",
      "outputs": [
        {
          "internalType": "bool",
          "name": "",
          "type": "bool"
        }
      ],
      "stateMutability": "view",
      "type": "function"
    },
    {
      "inputs": [],
      "name": "lastRateUpdate",
      "outputs": [
        {
          "internalType": "uint256",
          "name": "",
          "type": "uint256"
        }
      ],
      "stateMutability": "view",
      "type": "function"
    },
    {
      "inputs": [
        {
          "internalType": "address",
          "name": "borrower",
          "type": "address"
        },
        {
          "internalType": "uint256",
          "name": "debtRepaid",
          "type": "uint256"
        }
      ],
      "name": "liquidate",
      "outputs": [],
      "stateMutability": "nonpayable",
      "type": "function"
    },
    {
      "inputs": [],
      "name": "liquidationThreshold",
      "outputs": [
        {
          "internalType": "uint256",
          "name": "",
          "type": "uint256"
        }
      ],
      "stateMutability": "view",
      "type": "function"
    },
    {
      "inputs": [],
      "name": "mUSD",
      "outputs": [
        {
          "internalType": "contract IMiniMUSD",
          "name": "",
          "type": "address"
        }
      ],
      "stateMutability": "view",
      "type": "function"
    },
    {
      "inputs": [],
      "name": "oracle",
      "outputs": [
        {
          "internalType": "contract IMiniOracle",
          "name": "",
          "type": "address"
        }
      ],
      "stateMutability": "view",
      "type": "function"
    },
    {
      "inputs": [],
      "name": "pause",
      "outputs": [],
      "stateMutability": "nonpayable",
      "type": "function"
    },
    {
      "inputs": [],
      "name": "paused",
      "outputs": [
        {
          "internalType": "bool",
          "name": "",
          "type": "bool"
        }
      ],
      "stateMutability": "view",
      "type": "function"
    },
    {
      "inputs": [
        {
          "internalType": "address",
          "name": "",
          "type": "address"
        }
      ],
      "name": "positions",
      "outputs": [
        {
          "internalType": "uint256",
          "name": "collateral",
          "type": "uint256"
        },
        {
          "internalType": "uint256",
          "name": "debt",
          "type": "uint256"
        },
        {
          "internalType": "uint256",
          "name": "initialDebt",
          "type": "uint256"
        },
        {
          "internalType": "uint256",
          "name": "lastUpdate",
          "type": "uint256"
        }
      ],
      "stateMutability": "view",
      "type": "function"
    },
    {
      "inputs": [
        {
          "internalType": "bytes32",
          "name": "role",
          "type": "bytes32"
        },
        {
          "internalType": "address",
          "name": "callerConfirmation",
          "type": "address"
        }
      ],
      "name": "renounceRole",
      "outputs": [],
      "stateMutability": "nonpayable",
      "type": "function"
    },
    {
      "inputs": [
        {
          "internalType": "uint256",
          "name": "amount",
          "type": "uint256"
        }
      ],
      "name": "repay",
      "outputs": [],
      "stateMutability": "nonpayable",
      "type": "function"
    },
    {
      "inputs": [
        {
          "internalType": "bytes32",
          "name": "role",
          "type": "bytes32"
        },
        {
          "internalType": "address",
          "name": "account",
          "type": "address"
        }
      ],
      "name": "revokeRole",
      "outputs": [],
      "stateMutability": "nonpayable",
      "type": "function"
    },
    {
      "inputs": [
        {
          "internalType": "string",
          "name": "paramName",
          "type": "string"
        },
        {
          "internalType": "uint256",
          "name": "newValue",
          "type": "uint256"
        }
      ],
      "name": "setParams",
      "outputs": [],
      "stateMutability": "nonpayable",
      "type": "function"
    },
    {
      "inputs": [],
      "name": "stETH",
      "outputs": [
        {
          "internalType": "contract IMiniStETH",
          "name": "",
          "type": "address"
        }
      ],
      "stateMutability": "view",
      "type": "function"
    },
    {
      "inputs": [
        {
          "internalType": "bytes4",
          "name": "interfaceId",
          "type": "bytes4"
        }
      ],
      "name": "supportsInterface",
      "outputs": [
        {
          "internalType": "bool",
          "name": "",
          "type": "bool"
        }
      ],
      "stateMutability": "view",
      "type": "function"
    },
    {
      "inputs": [],
      "name": "totalInterestForStETH",
      "outputs": [
        {
          "internalType": "uint256",
          "name": "",
          "type": "uint256"
        }
      ],
      "stateMutability": "view",
      "type": "function"
    },
    {
      "inputs": [],
      "name": "treasury",
      "outputs": [
        {
          "internalType": "contract IMiniTreasury",
          "name": "",
          "type": "address"
        }
      ],
      "stateMutability": "view",
      "type": "function"
    },
    {
      "inputs": [],
      "name": "unpause",
      "outputs": [],
      "stateMutability": "nonpayable",
      "type": "function"
    },
    {
      "inputs": [
        {
          "internalType": "string",
          "name": "contractName",
          "type": "string"
        },
        {
          "internalType": "address",
          "name": "newAddress",
          "type": "address"
        }
      ],
      "name": "updateContract",
      "outputs": [],
      "stateMutability": "nonpayable",
      "type": "function"
    },
    {
      "inputs": [
        {
          "internalType": "uint256",
          "name": "amount",
          "type": "uint256"
        }
      ],
      "name": "withdrawCollateral",
      "outputs": [],
      "stateMutability": "nonpayable",
      "type": "function"
    },
    {
      "stateMutability": "payable",
      "type": "receive"
    }
  ],
  "bytecode": "0x60803461013357601f612c6438819003918201601f19168301916001600160401b038311848410176101375780849260a094604052833981010312610133578061004b6101239261014b565b906100586020820161014b565b6100646040830161014b565b9061007d60806100766060860161014b565b940161014b565b60015f5560088054610100600160a81b03191695811b610100600160a81b031695909517909455600980546001600160a01b03199081166001600160a01b0393841617909155600a8054821693831693909317909255600b8054909216921691909117905567093e1b78ac690000600255670f43fc2c04ee00006003556601c6bf52634000600455668e1bc9bf0400006005554260075561011d8161015f565b506101f7565b50604051612979908161028b8239f35b5f80fd5b634e487b7160e01b5f52604160045260245ffd5b51906001600160a01b038216820361013357565b6001600160a01b0381165f9081525f516020612c445f395f51905f52602052604090205460ff166101f2576001600160a01b03165f8181525f516020612c445f395f51905f5260205260408120805460ff191660011790553391907ff66846415d2bf9eabda9e84793ff9c0ea96d87f50fc41e66aa16469c6a442f05905f516020612c045f395f51905f529080a4600190565b505f90565b6001600160a01b0381165f9081525f516020612c245f395f51905f52602052604090205460ff166101f2576001600160a01b03165f8181525f516020612c245f395f51905f5260205260408120805460ff191660011790553391907f65d7a28e3265b37a6474929f336521b332c1681b933f6cb9f3376673440d862a905f516020612c045f395f51905f529080a460019056fe6080806040526004361015610079575b50361561001a575f80fd5b60405162461bcd60e51b815260206004820152603160248201527f44697265637420455448207472616e73666572206e6f7420616c6c6f7765642c60448201527020757365206465706f736974455448282960781b6064820152608490fd5b5f905f3560e01c90816301ffc9a714611e5b575080630a92279214611e3a57806316c1973914611dde578063248a9ca314611db35780632f2ff15d14611d75578063303cb86214611d5857806336568abe14611d12578063371fd8e614611ac25780633a6515aa14611aa45780633f4ba83a14611a595780634031234c14611a3b5780634d82680e14611a1d578063551512de1461187e57806355f57510146118135780635c975abb146117f05780636112fe2e1461151157806361d027b3146114e8578063697a60b31461136f5780636a79f1c3146113515780637744dc7b146113335780637c17d2371461130f5780637dc0d1d0146112e65780637e35a8ed146110ac57806383f4ca7b1461108a5780638456cb591461103c57806391d1485414610ff2578063a217fddf14610fd6578063bad4a01f14610e70578063bb6ce94714610e52578063bcbaf48714610884578063c1fe3e481461085a578063c463421c14610837578063c5ebeaec146105fd578063d547741f146105b5578063e63ab1e91461057a578063ec342ad014610557578063f09a1d001461052e578063f288a2e2146104f3578063f53d33f5146104d0578063f6326fb3146102725763fe6bcd7c0361000f573461026f57602036600319011261026f576020610267610262611eae565b6125ec565b604051908152f35b80fd5b508060031936011261026f576102866122e1565b60085461029660ff821615612011565b341561048b57604051633ba0b9a960e01b815260089190911c6001600160a01b031690602081600481855afa90811561048057839161044a575b50600181106103f357670de0b6b3a76400003402348104670de0b6b3a7640000036103df57906102ff91612065565b9081156103a1578083913b15610392576040516340c10f1960e01b8152336004820152602481018490529082908290604490829084905af180156103965761037d575b50506040519034825260208201527f57e8e547a3ef8d890c570ca885b0a8c441be3070e36b7ad4c7d6b9d9316ff2ce60403392a26001815580f35b8161038791611f29565b61039257815f610342565b5080fd5b6040513d84823e3d90fd5b60405162461bcd60e51b81526020600482015260166024820152757374455448206d696e7420616d6f756e74207a65726f60501b6044820152606490fd5b634e487b7160e01b84526011600452602484fd5b60405162461bcd60e51b815260206004820152602960248201527f496e76616c69642073744554482065786368616e676520726174652c206d757360448201526874206265203e3d203160b81b6064820152608490fd5b90506020813d602011610478575b8161046560209383611f29565b8101031261047457515f6102d0565b5f80fd5b3d9150610458565b6040513d85823e3d90fd5b60405162461bcd60e51b815260206004820152601b60248201527f4465706f7369742065746820616d6f756e74206d757374203e203000000000006044820152606490fd5b503461026f578060031936011261026f5760206040516706f05b59d3b200008152f35b503461026f578060031936011261026f5760206040517ff66846415d2bf9eabda9e84793ff9c0ea96d87f50fc41e66aa16469c6a442f058152f35b503461026f578060031936011261026f576009546040516001600160a01b039091168152602090f35b503461026f578060031936011261026f576020604051670de0b6b3a76400008152f35b503461026f578060031936011261026f5760206040517f65d7a28e3265b37a6474929f336521b332c1681b933f6cb9f3376673440d862a8152f35b503461026f57604036600319011261026f576105f96004356105d5611ec4565b906105f46105ef825f526001602052600160405f20015490565b612197565b61225d565b5080f35b503461026f57602036600319011261026f5760043561061a6122e1565b61062960ff6008541615612011565b80156107f257610638336122ff565b806106423361257a565b106107b657670de0b6b3a764000061065c60045483612052565b048260018060a01b03600954166106738385611f08565b90803b1561079d576040516340c10f1960e01b8152336004820152602481019290925282908290604490829084905af18015610396576107a1575b50600954600b546001600160a01b039081169116803b1561079d576040516340c10f1960e01b81526001600160a01b039290921660048301526024820184905282908290604490829084905af1801561039657610788575b5050338352600c6020526040832061071e8284611f08565b61072d60028301918254611f77565b90556107398284611f08565b61074860018301918254611f77565b905560034291015560405191825260208201527fe1979fe4c35e0cef342fef5668e2c8e7a7e9f5d5d1ca8fee0ac6c427fa4153af60403392a26001815580f35b8161079291611f29565b61079d57825f610706565b8280fd5b816107ab91611f29565b61079d57825f6106ae565b60405162461bcd60e51b8152602060048201526014602482015273115e18d959591cc8189bdc9c9bddc81b1a5b5a5d60621b6044820152606490fd5b60405162461bcd60e51b815260206004820152601960248201527f426f72726f7720616d6f756e74206d757374206265203e2030000000000000006044820152606490fd5b503461026f578060031936011261026f57602060405167016345785d8a00008152f35b503461026f578060031936011261026f5760088054604051911c6001600160a01b03168152602090f35b503461026f57604036600319011261026f5761089e611eae565b6024356108a96122e1565b6001600160a01b0382169181908315610e1a578115610dd557806102626108cf926122ff565b6003541115610d9d57828452600c602052604084209060018201918254916706f05b59d3b2000083028381046706f05b59d3b200001484151715610d8957670de0b6b3a76400009004809111610d81575b50600281019161093283548092611f08565b808611610d5d575050839186935b61094986612512565b670de0b6b3a7640000810290808204670de0b6b3a76400001490151715610bf457670d2f13f7789f00009004938415610d185784845410610cc2576009546040516323b872dd60e01b81523360048201523060248201526044810189905290602090829060649082908e906001600160a01b03165af1908115610bcc578a91610ca3575b5015610c67576109e86109e08a92612375565b905088611f08565b80610c08575b5050662386f26fc100008402848104662386f26fc1000003610bf457670de0b6b3a7640000900494886020610a63610a268989611f08565b6008805460405163a9059cbb60e01b81523360048201526024810193909352919485939290911c6001600160a01b03169183919082906044820190565b03925af18015610bcc57610bd7575b5060088054600b5460405163095ea7b360e01b81526001600160a01b039182166004820152602481018a9052926020928492911c16818d816044810103925af18015610bcc57610b9f575b50600b54600880548b92911c6001600160a01b039081169116803b1561079d5760405163118b569960e11b81526001600160a01b039290921660048301526024820189905282908290604490829084905af1801561039657610b86575b505081610b2b88610b349454611f08565b90558254611f08565b9055610b41828254611f08565b8155600342910155604051928352602083015260408201527f642dd4d37ddd32036b9797cec464c0045dd2118c549066ae6b0f88e32240c2d060603392a36001815580f35b81610b9091611f29565b610b9b57885f610b1a565b8880fd5b610bc09060203d602011610bc5575b610bb88183611f29565b810190611f5f565b610abd565b503d610bae565b6040513d8c823e3d90fd5b610bef9060203d602011610bc557610bb88183611f29565b610a72565b634e487b7160e01b89526011600452602489fd5b6009546001600160a01b0316803b1561079d57604051632770a7eb60e21b8152306004820152602481019290925282908290604490829084905af1801561039657156109ee5781610c5891611f29565b610c6357875f6109ee565b8780fd5b60405162461bcd60e51b81526020600482015260146024820152731b5554d1081d1c985b9cd9995c8819985a5b195960621b6044820152606490fd5b610cbc915060203d602011610bc557610bb88183611f29565b5f6109cd565b60405162461bcd60e51b815260206004820152602860248201527f436f6c6c61746572616c206578636565647320626f72726f776572277320636f6044820152671b1b185d195c985b60c21b6064820152608490fd5b60405162461bcd60e51b815260206004820152601d60248201527f436f6c6c61746572616c20616d6f756e74206d757374206265203e20300000006044820152606490fd5b929093610d6a8487611f08565b94808611610d79575b50610940565b94505f610d73565b93505f610920565b634e487b7160e01b88526011600452602488fd5b60405162461bcd60e51b815260206004820152601060248201526f4e6f74206c6971756964617461626c6560801b6044820152606490fd5b60405162461bcd60e51b815260206004820152601760248201527f4465627420616d6f756e74206d757374206265203e20300000000000000000006044820152606490fd5b60405162461bcd60e51b815260206004820152601060248201526f24b73b30b634b2103137b93937bbb2b960811b6044820152606490fd5b503461026f578060031936011261026f576020604051620151808152f35b503461026f57602036600319011261026f57600435610e8d6122e1565b600854610e9d60ff821615612011565b8115610f9c576040516323b872dd60e01b81523360048201523060248201526044810183905290602090829081868160648101039260081c6001600160a01b03165af1908115610480578391610f7d575b5015610f4057338252600c60205260408220610f0b828254611f77565b90556040519081527f8c66c9368f6312eb21bf56acbd3a20448f7d1589d024c30482c3d0a33125523e60203392a26001815580f35b60405162461bcd60e51b8152602060048201526015602482015274151c985b9cd9995c881cdd1155120819985a5b1959605a1b6044820152606490fd5b610f96915060203d602011610bc557610bb88183611f29565b5f610eee565b60405162461bcd60e51b81526020600482015260126024820152710416d6f756e74206d757374206265203e20360741b6044820152606490fd5b503461026f578060031936011261026f57602090604051908152f35b503461026f57604036600319011261026f57604061100e611ec4565b9160043581526001602052209060018060a01b03165f52602052602060ff60405f2054166040519015158152f35b503461026f578060031936011261026f576110556120b9565b600160ff196008541617600855337f62e78cea01bee320cd4e420270b5ea74000d11b0c9f74754ebdbfc544b05a2588280a280f35b503461026f578060031936011261026f57602060405166b1a2bc2ec500008152f35b503461026f57604036600319011261026f5760043567ffffffffffffffff8111610392576110de903690600401611eda565b60243592916110eb612128565b6110f6368383612083565b6020815191012093604094600e602087516111118982611f29565b828152016d189bdc9c9bddd31a5b5a5d1418dd60921b815220145f146111815790826080925f5160206129245f395f51905f529596600254826002555b8151968795606087528160608801528787013784840186018990526020850152830152601f01601f19168101030190a180f35b61118c368484612083565b602081519101206014602087516111a38982611f29565b82815201731b1a5c5d5a59185d1a5bdb951a1c995cda1bdb1960621b815220145f146111ea5790826080925f5160206129245f395f51905f5295966003548260035561114e565b6111f5368484612083565b60208151910120600c6020875161120c8982611f29565b828152016b189bdc9c9bddd199595418dd60a21b815220145f1461124b5790826080925f5160206129245f395f51905f5295966004548260045561114e565b611256368484612083565b6020815191012060096020875161126d8982611f29565b82815201683137b93937bba0a82960b91b815220145f146112a95790826080925f5160206129245f395f51905f5295966005548260055561114e565b845162461bcd60e51b8152602060048201526016602482015275496e76616c696420706172616d65746572206e616d6560501b6044820152606490fd5b503461026f578060031936011261026f57600a546040516001600160a01b039091168152602090f35b503461026f57602036600319011261026f57602061026761132e611eae565b61257a565b503461026f578060031936011261026f576020600254604051908152f35b503461026f578060031936011261026f576020600454604051908152f35b503461026f57604036600319011261026f5760043567ffffffffffffffff8111610392576113a1903690600401611eda565b906113aa611ec4565b6113b2612128565b6001600160a01b03169182156114b1576113cd368284612083565b60208151910120916040926006602085516113e88782611f29565b82815201656f7261636c6560d01b815220145f1461141e575050506bffffffffffffffffffffffff60a01b600a541617600a5580f35b611429913691612083565b602081519101206008602083516114408582611f29565b8281520167747265617375727960c01b815220145f1461147657506bffffffffffffffffffffffff60a01b600b541617600b5580f35b5162461bcd60e51b8152602060048201526015602482015274496e76616c696420636f6e7472616374206e616d6560581b6044820152606490fd5b60405162461bcd60e51b815260206004820152600f60248201526e496e76616c6964206164647265737360881b6044820152606490fd5b503461026f578060031936011261026f57600b546040516001600160a01b039091168152602090f35b503461026f57602036600319011261026f5760043561152e6122e1565b61153d60ff6008541615612011565b8080156117ab57338352600c602052604083209061155a336122ff565b6001820154908115611792575061158561157c670de0b6b3a764000092612512565b60035490612052565b048154816115938583611f08565b1061177f575b5050811561172c575b6115ad828254611f08565b90556008805483911c6001600160a01b0316803b1561039257604051632770a7eb60e21b8152306004820152602481018490529082908290604490829084905af1801561039657611717575b505060088054604051633ba0b9a960e01b815291602091839160049183911c6001600160a01b03165afa9081156104805783916116e3575b50611645670de0b6b3a76400009183612052565b0480471061169e576116668380808085335af1611660611fa0565b50611fcf565b60405191825260208201527f627a692d5a03ab34732c0d2aa319f3ecdebdc4528f383eabcb25441dc0a70cfb60403392a26001815580f35b60405162461bcd60e51b815260206004820152601960248201527f496e73756666696369656e742045544820696e207661756c74000000000000006044820152606490fd5b90506020813d60201161170f575b816116fe60209383611f29565b810103126104745751611645611631565b3d91506116f1565b8161172191611f29565b61039257815f6115f9565b60405162461bcd60e51b815260206004820152602560248201527f43616e6e6f742077697468647261772077697468206f75747374616e64696e67604482015264081919589d60da1b6064820152608490fd5b61178a929350611f08565b905f80611599565b8254915081106117a3575b506115a2565b91505f61179d565b60405162461bcd60e51b815260206004820152601b60248201527f576974686472617720616d6f756e74206d757374206265203e203000000000006044820152606490fd5b503461026f578060031936011261026f57602060ff600854166040519015158152f35b503461026f57602036600319011261026f576040906001600160a01b03611838611eae565b168152600c60205220805461187a6001830154926003600282015491015490604051948594859094939260609260808301968352602083015260408201520152565b0390f35b503461026f57606036600319011261026f57611898611eae565b6044356001600160a01b038116916024359190838203611a19576118ba612128565b60ff60085416156119d457831561199b576001600160a01b0316908161193e5750508047106118f95782808080936118f6955af1611660611fa0565b80f35b60405162461bcd60e51b815260206004820152601860248201527f496e73756666696369656e74204554482062616c616e636500000000000000006044820152606490fd5b60405163a9059cbb60e01b81526001600160a01b0391909116600482015260248101929092529091506020908290604490829086905af1801561039657611983575080f35b6105f99060203d602011610bc557610bb88183611f29565b60405162461bcd60e51b8152602060048201526011602482015270125b9d985b1a59081c9958da5c1a595b9d607a1b6044820152606490fd5b60405162461bcd60e51b815260206004820152601760248201527f436f6e7472616374206d757374206265207061757365640000000000000000006044820152606490fd5b8480fd5b503461026f578060031936011261026f576020600754604051908152f35b503461026f578060031936011261026f576020600354604051908152f35b503461026f578060031936011261026f57611a726120b9565b60ff1960085416600855337f5db9ee0a495bf2e6ff9c91a7834c1ba4fdd244a5e8aa4e537bd38aeae4b073aa8280a280f35b503461026f578060031936011261026f576020600554604051908152f35b503461047457602036600319011261047457600435611adf6122e1565b8015611ccd57611aee336122ff565b335f52600c60205260405f20600181019060028254910191611b1283548093611f08565b808511611cac57505f9150835b6009546040516323b872dd60e01b81523360048201523060248201526044810187905290602090829060649082905f906001600160a01b03165af1908115611c3d575f91611c8d575b5015611c4857611b82611b7a82612375565b905086611f08565b80611bd7575b5090610b2b611b9b84611ba29594611f77565b8254611f08565b90556040519081527f5c16de4f8b59bd9caf0f49a545f25819a895ed223294290b408242e72a59423160203392a26001815580f35b6009546001600160a01b0316803b1561047457604051632770a7eb60e21b815230600482015260248101929092525f908290604490829084905af18015611c3d5715611b8857611ba293929196505f611c2f91611f29565b5f9591925090610b2b611b88565b6040513d5f823e3d90fd5b60405162461bcd60e51b815260206004820152601760248201527f6d555344207472616e66657246726f6d206661696c65640000000000000000006044820152606490fd5b611ca6915060203d602011610bc557610bb88183611f29565b5f611b68565b611cb68186611f08565b92808411611cc5575b50611b1f565b92505f611cbf565b60405162461bcd60e51b815260206004820152601860248201527f526570617920616d6f756e74206d757374206265203e203000000000000000006044820152606490fd5b3461047457604036600319011261047457611d2b611ec4565b336001600160a01b03821603611d4957611d479060043561225d565b005b63334bd91960e11b5f5260045ffd5b34610474575f366003190112610474576020600654604051908152f35b3461047457604036600319011261047457611d47600435611d94611ec4565b90611dae6105ef825f526001602052600160405f20015490565b6121d1565b346104745760203660031901126104745760206102676004355f526001602052600160405f20015490565b34610474576020366003190112610474576001600160a01b03611dff611eae565b165f908152600c6020908152604091829020805460018201546002830154600390930154855192835293820152928301526060820152608090f35b34610474575f366003190112610474576020604051662386f26fc100008152f35b34610474576020366003190112610474576004359063ffffffff60e01b821680920361047457602091637965db0b60e01b8114908115611e9d575b5015158152f35b6301ffc9a760e01b14905083611e96565b600435906001600160a01b038216820361047457565b602435906001600160a01b038216820361047457565b9181601f840112156104745782359167ffffffffffffffff8311610474576020838186019501011161047457565b91908203918211611f1557565b634e487b7160e01b5f52601160045260245ffd5b90601f8019910116810190811067ffffffffffffffff821117611f4b57604052565b634e487b7160e01b5f52604160045260245ffd5b90816020910312610474575180151581036104745790565b91908201809211611f1557565b67ffffffffffffffff8111611f4b57601f01601f191660200190565b3d15611fca573d90611fb182611f84565b91611fbf6040519384611f29565b82523d5f602084013e565b606090565b15611fd657565b60405162461bcd60e51b8152602060048201526013602482015272115512081d1c985b9cd9995c8819985a5b1959606a1b6044820152606490fd5b1561201857565b60405162461bcd60e51b815260206004820152601260248201527110dbdb9d1c9858dd081a5cc81c185d5cd95960721b6044820152606490fd5b81810292918115918404141715611f1557565b811561206f570490565b634e487b7160e01b5f52601260045260245ffd5b92919261208f82611f84565b9161209d6040519384611f29565b829481845281830111610474578281602093845f960137010152565b335f9081527fb9cbbae02fe941283ec0eefd7b121e3bc7f89fae077b27bdd75a7fd4cf1543a8602052604090205460ff16156120f157565b63e2517d3f60e01b5f52336004527f65d7a28e3265b37a6474929f336521b332c1681b933f6cb9f3376673440d862a60245260445ffd5b335f9081527f52d2cb233220c8e91c709ee742ce4a17e54d5f88c7bf64c2e9998c805859d58a602052604090205460ff161561216057565b63e2517d3f60e01b5f52336004527ff66846415d2bf9eabda9e84793ff9c0ea96d87f50fc41e66aa16469c6a442f0560245260445ffd5b5f81815260016020908152604080832033845290915290205460ff16156121bb5750565b63e2517d3f60e01b5f523360045260245260445ffd5b5f8181526001602090815260408083206001600160a01b038616845290915290205460ff16612257575f8181526001602081815260408084206001600160a01b0396909616808552959091528220805460ff19169091179055339291907f2f8788117e7eff1d82e926ec794901d17c78024a50270940304540a733656f0d9080a4600190565b50505f90565b5f8181526001602090815260408083206001600160a01b038616845290915290205460ff1615612257575f8181526001602090815260408083206001600160a01b0395909516808452949091528120805460ff19169055339291907ff6391f5c32d9c69d2a47ea670b442974b53935d1edc7fd64eb21e047a839171b9080a4600190565b60025f54146122f05760025f55565b633ee5aeb560e01b5f5260045ffd5b6001600160a01b03165f908152600c602052604090206001810180549182156123705760030191612331835442611f08565b90811561236a576a1a1601fc4ea7109e00000061235c6123639361235760055485612052565b612052565b0490611f77565b9055429055565b50505050565b505050565b90811561250b5767016345785d8a0000820282810467016345785d8a000003611f1557670de0b6b3a76400006123ad91048093611f08565b8261240c575b806123f0575b620151806123c960075442611f08565b1015806123e5575b6123d9579190565b6123e1612661565b9190565b5060065415156123d1565b6124046123fc82612512565b600654611f77565b6006556123b9565b600954600b5460405163095ea7b360e01b81526001600160a01b0391821660048201526024810186905291602091839160449183915f91165af18015611c3d576124ee575b50600b546009546001600160a01b039081169116803b156104745760405163118b569960e11b81526001600160a01b03929092166004830152602482018590525f908290604490829084905af18015611c3d576124de575b507f42d029138c014f559459aa5f9890a42034310bbbad272115d31bc70d80c00b1760408051838152856020820152a16123b3565b5f6124e891611f29565b5f6124a9565b6125069060203d602011610bc557610bb88183611f29565b612451565b5f91508190565b61251a612851565b9190670de0b6b3a7640000820291808304670de0b6b3a76400001481151715611f15576ec097ce7bc90715b34b9f10000000000291808304670de0b6b3a76400001490151715611f15576125779261257191612052565b90612065565b90565b6001600160a01b03165f908152600c602052604090208054801561225757670de0b6b3a76400006125d66ec097ce7bc90715b34b9f10000000006125cc6001946123576125c5612851565b9092612052565b0460025490612052565b049101548082115f146122575761257791611f08565b6001600160a01b03165f908152600c60205260409020600181015490811561265a5761262e6ec097ce7bc90715b34b9f100000000091546123576125c5612851565b0490670de0b6b3a7640000820291808304670de0b6b3a76400001490151715611f155761257791612065565b50505f1990565b600880546040516318160ddd60e01b81525f929190911c6001600160a01b031690602081600481855afa908115611c3d575f9161281f575b5080158015612815575b6123705760065490670de0b6b3a7640000820291808304670de0b6b3a76400001490151715611f15576126d591612065565b604051633ba0b9a960e01b81529290602084600481865afa938415611c3d575f946127df575b506127069084611f77565b91803b15610474575f8091602460405180948193635cf102d760e11b83528860048401525af18015611c3d576127cc575b5060088054600654911c6001600160a01b031690813b1561079d57829160248392604051948593849263716eb0d160e01b845260048401525af18015610396576127b7575b50916040917fc8d1043f24843c0a1c9251fdc30017d84e87498fbcf232af9f86816b5e182bde936006554260075582519182526020820152a1565b6127c2828092611f29565b61026f575f61277c565b6127d891505f90611f29565b5f5f612737565b9093506020813d60201161280d575b816127fb60209383611f29565b810103126104745751926127066126fb565b3d91506127ee565b50600654156126a3565b90506020813d602011612849575b8161283a60209383611f29565b8101031261047457515f612699565b3d915061282d565b600a5460405163a607a8d960e01b815290602090829060049082906001600160a01b03165afa908115611c3d575f916128f1575b5060088054604051633ba0b9a960e01b815292939291602091839160049183911c6001600160a01b03165afa908115611c3d575f916128c2575090565b90506020813d6020116128e9575b816128dd60209383611f29565b81010312610474575190565b3d91506128d0565b90506020813d60201161291b575b8161290c60209383611f29565b8101031261047457515f612885565b3d91506128ff56fec194909a05d344d541a4418f8a1afcb8c4a13f35e87d3faf2b4d1f736a2f00b6a2646970667358221220f8be2f095f7760a50bc3af02431930a433d57a62cf38d3ded060750fa5a60c3a64736f6c634300081c00332f8788117e7eff1d82e926ec794901d17c78024a50270940304540a733656f0db9cbbae02fe941283ec0eefd7b121e3bc7f89fae077b27bdd75a7fd4cf1543a852d2cb233220c8e91c709ee742ce4a17e54d5f88c7bf64c2e9998c805859d58a",
  "linkReferences": {},
  "deployedLinkReferences": {},
  "immutableReferences": {},
  "inputSourceName": "project/contracts/MiniVault.sol",
  "buildInfoId": "solc-0_8_28-cfc9d0571428e8d05226b702e3b2e4b10bcc56ce"
}