{
  "_format": "hh3-artifact-1",
  "contractName": "MiniTreasury",
  "sourceName": "contracts/MiniTreasury.sol",
  "abi": [
    {
      "inputs": [
        {
          "internalType": "address",
          "name": "_timelock",
          "type": "address"
        }
      ],
      "stateMutability": "nonpayable",
      "type": "constructor"
    },
    {
      "inputs": [],
      "name": "AccessControlBadConfirmation",
      "type": "error"
    },
    {
      "inputs": [
        {
          "internalType": "address",
          "name": "account",
          "type": "address"
        },
        {
          "internalType": "bytes32",
          "name": "neededRole",
          "type": "bytes32"
        }
      ],
      "name": "AccessControlUnauthorizedAccount",
      "type": "error"
    },
    {
      "anonymous": false,
      "inputs": [
        {
          "indexed": true,
          "internalType": "address",
          "name": "token",
          "type": "address"
        },
        {
          "indexed": false,
          "internalType": "uint256",
          "name": "amount",
          "type": "uint256"
        }
      ],
      "name": "FeeReceived",
      "type": "event"
    },
    {
      "anonymous": false,
      "inputs": [
        {
          "indexed": true,
          "internalType": "address",
          "name": "to",
          "type": "address"
        },
        {
          "indexed": true,
          "internalType": "address",
          "name": "token",
          "type": "address"
        },
        {
          "indexed": false,
          "internalType": "uint256",
          "name": "amount",
          "type": "uint256"
        }
      ],
      "name": "FeeWithdrawn",
      "type": "event"
    },
    {
      "anonymous": false,
      "inputs": [
        {
          "indexed": true,
          "internalType": "bytes32",
          "name": "role",
          "type": "bytes32"
        },
        {
          "indexed": true,
          "internalType": "bytes32",
          "name": "previousAdminRole",
          "type": "bytes32"
        },
        {
          "indexed": true,
          "internalType": "bytes32",
          "name": "newAdminRole",
          "type": "bytes32"
        }
      ],
      "name": "RoleAdminChanged",
      "type": "event"
    },
    {
      "anonymous": false,
      "inputs": [
        {
          "indexed": true,
          "internalType": "bytes32",
          "name": "role",
          "type": "bytes32"
        },
        {
          "indexed": true,
          "internalType": "address",
          "name": "account",
          "type": "address"
        },
        {
          "indexed": true,
          "internalType": "address",
          "name": "sender",
          "type": "address"
        }
      ],
      "name": "RoleGranted",
      "type": "event"
    },
    {
      "anonymous": false,
      "inputs": [
        {
          "indexed": true,
          "internalType": "bytes32",
          "name": "role",
          "type": "bytes32"
        },
        {
          "indexed": true,
          "internalType": "address",
          "name": "account",
          "type": "address"
        },
        {
          "indexed": true,
          "internalType": "address",
          "name": "sender",
          "type": "address"
        }
      ],
      "name": "RoleRevoked",
      "type": "event"
    },
    {
      "inputs": [],
      "name": "DEFAULT_ADMIN_ROLE",
      "outputs": [
        {
          "internalType": "bytes32",
          "name": "",
          "type": "bytes32"
        }
      ],
      "stateMutability": "view",
      "type": "function"
    },
    {
      "inputs": [],
      "name": "TIMELOCK_ROLE",
      "outputs": [
        {
          "internalType": "bytes32",
          "name": "",
          "type": "bytes32"
        }
      ],
      "stateMutability": "view",
      "type": "function"
    },
    {
      "inputs": [
        {
          "internalType": "address",
          "name": "token",
          "type": "address"
        }
      ],
      "name": "getBalance",
      "outputs": [
        {
          "internalType": "uint256",
          "name": "",
          "type": "uint256"
        }
      ],
      "stateMutability": "view",
      "type": "function"
    },
    {
      "inputs": [
        {
          "internalType": "bytes32",
          "name": "role",
          "type": "bytes32"
        }
      ],
      "name": "getRoleAdmin",
      "outputs": [
        {
          "internalType": "bytes32",
          "name": "",
          "type": "bytes32"
        }
      ],
      "stateMutability": "view",
      "type": "function"
    },
    {
      "inputs": [
        {
          "internalType": "bytes32",
          "name": "role",
          "type": "bytes32"
        },
        {
          "internalType": "address",
          "name": "account",
          "type": "address"
        }
      ],
      "name": "grantRole",
      "outputs": [],
      "stateMutability": "nonpayable",
      "type": "function"
    },
    {
      "inputs": [
        {
          "internalType": "bytes32",
          "name": "role",
          "type": "bytes32"
        },
        {
          "internalType": "address",
          "name": "account",
          "type": "address"
        }
      ],
      "name": "hasRole",
      "outputs": [
        {
          "internalType": "bool",
          "name": "",
          "type": "bool"
        }
      ],
      "stateMutability": "view",
      "type": "function"
    },
    {
      "inputs": [
        {
          "internalType": "address",
          "name": "token",
          "type": "address"
        },
        {
          "internalType": "uint256",
          "name": "amount",
          "type": "uint256"
        }
      ],
      "name": "receiveFee",
      "outputs": [],
      "stateMutability": "nonpayable",
      "type": "function"
    },
    {
      "inputs": [
        {
          "internalType": "bytes32",
          "name": "role",
          "type": "bytes32"
        },
        {
          "internalType": "address",
          "name": "callerConfirmation",
          "type": "address"
        }
      ],
      "name": "renounceRole",
      "outputs": [],
      "stateMutability": "nonpayable",
      "type": "function"
    },
    {
      "inputs": [
        {
          "internalType": "bytes32",
          "name": "role",
          "type": "bytes32"
        },
        {
          "internalType": "address",
          "name": "account",
          "type": "address"
        }
      ],
      "name": "revokeRole",
      "outputs": [],
      "stateMutability": "nonpayable",
      "type": "function"
    },
    {
      "inputs": [
        {
          "internalType": "bytes4",
          "name": "interfaceId",
          "type": "bytes4"
        }
      ],
      "name": "supportsInterface",
      "outputs": [
        {
          "internalType": "bool",
          "name": "",
          "type": "bool"
        }
      ],
      "stateMutability": "view",
      "type": "function"
    },
    {
      "inputs": [
        {
          "internalType": "address",
          "name": "to",
          "type": "address"
        },
        {
          "internalType": "address",
          "name": "token",
          "type": "address"
        },
        {
          "internalType": "uint256",
          "name": "amount",
          "type": "uint256"
        }
      ],
      "name": "withdraw",
      "outputs": [],
      "stateMutability": "nonpayable",
      "type": "function"
    },
    {
      "stateMutability": "payable",
      "type": "receive"
    }
  ],
  "bytecode": "0x6080346100b357601f610bd838819003918201601f19168301916001600160401b038311848410176100b7578084926020946040528339810103126100b357516001600160a01b0381168082036100b3571561006e5761005e906100cb565b50604051610a4190816101778239f35b60405162461bcd60e51b815260206004820152601f60248201527f54696d656c6f636b20616464726573732063616e6e6f74206265207a65726f006044820152606490fd5b5f80fd5b634e487b7160e01b5f52604160045260245ffd5b6001600160a01b0381165f9081525f516020610bb85f395f51905f52602052604090205460ff16610171576001600160a01b03165f8181525f516020610bb85f395f51905f5260205260408120805460ff191660011790553391907ff66846415d2bf9eabda9e84793ff9c0ea96d87f50fc41e66aa16469c6a442f05907f2f8788117e7eff1d82e926ec794901d17c78024a50270940304540a733656f0d9080a4600190565b505f9056fe608080604052600436101561004e575b50361561001a575f80fd5b3461002157005b5f7fbb527541f6cc244ae00ab689f8c23d072a30a3b4176021df62ea1c2bac8aa2266020604051348152a2005b5f3560e01c90816301ffc9a714610760575080632316ad3214610622578063248a9ca3146105f85780632f2ff15d146105bb57806336568abe1461057757806391d148541461052f578063a217fddf14610515578063d547741f146104d1578063d9caed121461013c578063f288a2e2146101025763f8b2cb4f146100d3575f61000f565b346100fe5760203660031901126100fe5760206100f66100f16107b3565b61085a565b604051908152f35b5f80fd5b346100fe575f3660031901126100fe5760206040517ff66846415d2bf9eabda9e84793ff9c0ea96d87f50fc41e66aa16469c6a442f058152f35b346100fe5760603660031901126100fe576101556107b3565b61015d6107c9565b335f9081527f7ac54956a1ef8e3291bb91e2c67ee0022c1dd0c0faf00c013d518201b2b3426c6020526040902054604435929060ff161561049a576001600160a01b0316908115610455576101b38315156107df565b6001600160a01b031691826102d45780471061028f575f80808084865af13d1561028a573d67ffffffffffffffff811161027657604051906101ff601f8201601f191660200183610820565b81525f60203d92013e5b1561023b5760207eed5939179dc194223f0edd1517ecee2210b22da7f82c8e4b1795e93b9f06aa915b604051908152a3005b60405162461bcd60e51b8152602060048201526013602482015272115512081d1c985b9cd9995c8819985a5b1959606a1b6044820152606490fd5b634e487b7160e01b5f52604160045260245ffd5b610209565b60405162461bcd60e51b815260206004820152601860248201527f496e73756666696369656e74204554482062616c616e636500000000000000006044820152606490fd5b6040516370a0823160e01b8152306004820152602081602481875afa80156103d05782915f91610420575b50106103db5760405163a9059cbb60e01b81528260048201528160248201526020816044815f885af19081156103d0575f916103a1575b50156103645760207eed5939179dc194223f0edd1517ecee2210b22da7f82c8e4b1795e93b9f06aa91610232565b60405162461bcd60e51b8152602060048201526015602482015274151bdad95b881d1c985b9cd9995c8819985a5b1959605a1b6044820152606490fd5b6103c3915060203d6020116103c9575b6103bb8183610820565b810190610842565b84610336565b503d6103b1565b6040513d5f823e3d90fd5b60405162461bcd60e51b815260206004820152601a60248201527f496e73756666696369656e7420746f6b656e2062616c616e63650000000000006044820152606490fd5b9150506020813d60201161044d575b8161043c60209383610820565b810103126100fe57819051856102ff565b3d915061042f565b60405162461bcd60e51b815260206004820152601860248201527f526563697069656e742063616e6e6f74206265207a65726f00000000000000006044820152606490fd5b63e2517d3f60e01b5f52336004527ff66846415d2bf9eabda9e84793ff9c0ea96d87f50fc41e66aa16469c6a442f0560245260445ffd5b346100fe5760403660031901126100fe576105136004356104f06107c9565b9061050e610509825f525f602052600160405f20015490565b6108cb565b61098b565b005b346100fe575f3660031901126100fe5760206040515f8152f35b346100fe5760403660031901126100fe576105486107c9565b6004355f525f60205260405f209060018060a01b03165f52602052602060ff60405f2054166040519015158152f35b346100fe5760403660031901126100fe576105906107c9565b336001600160a01b038216036105ac576105139060043561098b565b63334bd91960e11b5f5260045ffd5b346100fe5760403660031901126100fe576105136004356105da6107c9565b906105f3610509825f525f602052600160405f20015490565b610903565b346100fe5760203660031901126100fe5760206100f66004355f525f602052600160405f20015490565b346100fe5760403660031901126100fe5761063b6107b3565b6024359061064a8215156107df565b6001600160a01b031690811561071b576040516323b872dd60e01b8152336004820152306024820152604481018290526020816064815f875af19081156103d0575f916106fc575b50156106c55760207fbb527541f6cc244ae00ab689f8c23d072a30a3b4176021df62ea1c2bac8aa22691604051908152a2005b60405162461bcd60e51b815260206004820152600f60248201526e151c985b9cd9995c8819985a5b1959608a1b6044820152606490fd5b610715915060203d6020116103c9576103bb8183610820565b83610692565b60405162461bcd60e51b815260206004820152601c60248201527f546f6b656e20616464726573732063616e6e6f74206265207a65726f000000006044820152606490fd5b346100fe5760203660031901126100fe576004359063ffffffff60e01b82168092036100fe57602091637965db0b60e01b81149081156107a2575b5015158152f35b6301ffc9a760e01b1490508361079b565b600435906001600160a01b03821682036100fe57565b602435906001600160a01b03821682036100fe57565b156107e657565b60405162461bcd60e51b81526020600482015260126024820152710416d6f756e74206d757374206265203e20360741b6044820152606490fd5b90601f8019910116810190811067ffffffffffffffff82111761027657604052565b908160209103126100fe575180151581036100fe5790565b6001600160a01b03168061086d57504790565b6020602491604051928380926370a0823160e01b82523060048301525afa9081156103d0575f9161089c575090565b90506020813d6020116108c3575b816108b760209383610820565b810103126100fe575190565b3d91506108aa565b5f8181526020818152604080832033845290915290205460ff16156108ed5750565b63e2517d3f60e01b5f523360045260245260445ffd5b5f818152602081815260408083206001600160a01b038616845290915290205460ff16610985575f818152602081815260408083206001600160a01b0395909516808452949091528120805460ff19166001179055339291907f2f8788117e7eff1d82e926ec794901d17c78024a50270940304540a733656f0d9080a4600190565b50505f90565b5f818152602081815260408083206001600160a01b038616845290915290205460ff1615610985575f818152602081815260408083206001600160a01b0395909516808452949091528120805460ff19169055339291907ff6391f5c32d9c69d2a47ea670b442974b53935d1edc7fd64eb21e047a839171b9080a460019056fea2646970667358221220789c1674eab5131a31c281db79c2c5a5a26bb5ee80c4a0d0a07823eced778bc864736f6c634300081c00337ac54956a1ef8e3291bb91e2c67ee0022c1dd0c0faf00c013d518201b2b3426c",
  "linkReferences": {},
  "deployedLinkReferences": {},
  "immutableReferences": {},
  "inputSourceName": "project/contracts/MiniTreasury.sol",
  "buildInfoId": "solc-0_8_28-584271623f7f5412f5907b51e667bf16d34ae85f"
}