{
  "_format": "hh3-artifact-1",
  "contractName": "MiniStETH",
  "sourceName": "contracts/token/MiniStETH.sol",
  "abi": [
    {
      "inputs": [
        {
          "internalType": "address",
          "name": "_timelock",
          "type": "address"
        }
      ],
      "stateMutability": "nonpayable",
      "type": "constructor"
    },
    {
      "inputs": [],
      "name": "AccessControlBadConfirmation",
      "type": "error"
    },
    {
      "inputs": [
        {
          "internalType": "address",
          "name": "account",
          "type": "address"
        },
        {
          "internalType": "bytes32",
          "name": "neededRole",
          "type": "bytes32"
        }
      ],
      "name": "AccessControlUnauthorizedAccount",
      "type": "error"
    },
    {
      "inputs": [
        {
          "internalType": "address",
          "name": "spender",
          "type": "address"
        },
        {
          "internalType": "uint256",
          "name": "allowance",
          "type": "uint256"
        },
        {
          "internalType": "uint256",
          "name": "needed",
          "type": "uint256"
        }
      ],
      "name": "ERC20InsufficientAllowance",
      "type": "error"
    },
    {
      "inputs": [
        {
          "internalType": "address",
          "name": "sender",
          "type": "address"
        },
        {
          "internalType": "uint256",
          "name": "balance",
          "type": "uint256"
        },
        {
          "internalType": "uint256",
          "name": "needed",
          "type": "uint256"
        }
      ],
      "name": "ERC20InsufficientBalance",
      "type": "error"
    },
    {
      "inputs": [
        {
          "internalType": "address",
          "name": "approver",
          "type": "address"
        }
      ],
      "name": "ERC20InvalidApprover",
      "type": "error"
    },
    {
      "inputs": [
        {
          "internalType": "address",
          "name": "receiver",
          "type": "address"
        }
      ],
      "name": "ERC20InvalidReceiver",
      "type": "error"
    },
    {
      "inputs": [
        {
          "internalType": "address",
          "name": "sender",
          "type": "address"
        }
      ],
      "name": "ERC20InvalidSender",
      "type": "error"
    },
    {
      "inputs": [
        {
          "internalType": "address",
          "name": "spender",
          "type": "address"
        }
      ],
      "name": "ERC20InvalidSpender",
      "type": "error"
    },
    {
      "anonymous": false,
      "inputs": [
        {
          "indexed": true,
          "internalType": "address",
          "name": "owner",
          "type": "address"
        },
        {
          "indexed": true,
          "internalType": "address",
          "name": "spender",
          "type": "address"
        },
        {
          "indexed": false,
          "internalType": "uint256",
          "name": "value",
          "type": "uint256"
        }
      ],
      "name": "Approval",
      "type": "event"
    },
    {
      "anonymous": false,
      "inputs": [
        {
          "indexed": false,
          "internalType": "uint256",
          "name": "oldRate",
          "type": "uint256"
        },
        {
          "indexed": false,
          "internalType": "uint256",
          "name": "newRate",
          "type": "uint256"
        }
      ],
      "name": "ExchangeRateUpdated",
      "type": "event"
    },
    {
      "anonymous": false,
      "inputs": [
        {
          "indexed": true,
          "internalType": "bytes32",
          "name": "role",
          "type": "bytes32"
        },
        {
          "indexed": true,
          "internalType": "bytes32",
          "name": "previousAdminRole",
          "type": "bytes32"
        },
        {
          "indexed": true,
          "internalType": "bytes32",
          "name": "newAdminRole",
          "type": "bytes32"
        }
      ],
      "name": "RoleAdminChanged",
      "type": "event"
    },
    {
      "anonymous": false,
      "inputs": [
        {
          "indexed": true,
          "internalType": "bytes32",
          "name": "role",
          "type": "bytes32"
        },
        {
          "indexed": true,
          "internalType": "address",
          "name": "account",
          "type": "address"
        },
        {
          "indexed": true,
          "internalType": "address",
          "name": "sender",
          "type": "address"
        }
      ],
      "name": "RoleGranted",
      "type": "event"
    },
    {
      "anonymous": false,
      "inputs": [
        {
          "indexed": true,
          "internalType": "bytes32",
          "name": "role",
          "type": "bytes32"
        },
        {
          "indexed": true,
          "internalType": "address",
          "name": "account",
          "type": "address"
        },
        {
          "indexed": true,
          "internalType": "address",
          "name": "sender",
          "type": "address"
        }
      ],
      "name": "RoleRevoked",
      "type": "event"
    },
    {
      "anonymous": false,
      "inputs": [
        {
          "indexed": true,
          "internalType": "address",
          "name": "from",
          "type": "address"
        },
        {
          "indexed": true,
          "internalType": "address",
          "name": "to",
          "type": "address"
        },
        {
          "indexed": false,
          "internalType": "uint256",
          "name": "value",
          "type": "uint256"
        }
      ],
      "name": "Transfer",
      "type": "event"
    },
    {
      "inputs": [],
      "name": "DEFAULT_ADMIN_ROLE",
      "outputs": [
        {
          "internalType": "bytes32",
          "name": "",
          "type": "bytes32"
        }
      ],
      "stateMutability": "view",
      "type": "function"
    },
    {
      "inputs": [],
      "name": "TIMELOCK_ROLE",
      "outputs": [
        {
          "internalType": "bytes32",
          "name": "",
          "type": "bytes32"
        }
      ],
      "stateMutability": "view",
      "type": "function"
    },
    {
      "inputs": [
        {
          "internalType": "uint256",
          "name": "amount",
          "type": "uint256"
        }
      ],
      "name": "addStETHInterest",
      "outputs": [],
      "stateMutability": "nonpayable",
      "type": "function"
    },
    {
      "inputs": [
        {
          "internalType": "address",
          "name": "owner",
          "type": "address"
        },
        {
          "internalType": "address",
          "name": "spender",
          "type": "address"
        }
      ],
      "name": "allowance",
      "outputs": [
        {
          "internalType": "uint256",
          "name": "",
          "type": "uint256"
        }
      ],
      "stateMutability": "view",
      "type": "function"
    },
    {
      "inputs": [
        {
          "internalType": "address",
          "name": "spender",
          "type": "address"
        },
        {
          "internalType": "uint256",
          "name": "value",
          "type": "uint256"
        }
      ],
      "name": "approve",
      "outputs": [
        {
          "internalType": "bool",
          "name": "",
          "type": "bool"
        }
      ],
      "stateMutability": "nonpayable",
      "type": "function"
    },
    {
      "inputs": [
        {
          "internalType": "address",
          "name": "account",
          "type": "address"
        }
      ],
      "name": "balanceOf",
      "outputs": [
        {
          "internalType": "uint256",
          "name": "",
          "type": "uint256"
        }
      ],
      "stateMutability": "view",
      "type": "function"
    },
    {
      "inputs": [
        {
          "internalType": "address",
          "name": "from",
          "type": "address"
        },
        {
          "internalType": "uint256",
          "name": "amount",
          "type": "uint256"
        }
      ],
      "name": "burn",
      "outputs": [],
      "stateMutability": "nonpayable",
      "type": "function"
    },
    {
      "inputs": [],
      "name": "decimals",
      "outputs": [
        {
          "internalType": "uint8",
          "name": "",
          "type": "uint8"
        }
      ],
      "stateMutability": "view",
      "type": "function"
    },
    {
      "inputs": [],
      "name": "exchangeRate",
      "outputs": [
        {
          "internalType": "uint256",
          "name": "",
          "type": "uint256"
        }
      ],
      "stateMutability": "view",
      "type": "function"
    },
    {
      "inputs": [
        {
          "internalType": "bytes32",
          "name": "role",
          "type": "bytes32"
        }
      ],
      "name": "getRoleAdmin",
      "outputs": [
        {
          "internalType": "bytes32",
          "name": "",
          "type": "bytes32"
        }
      ],
      "stateMutability": "view",
      "type": "function"
    },
    {
      "inputs": [
        {
          "internalType": "bytes32",
          "name": "role",
          "type": "bytes32"
        },
        {
          "internalType": "address",
          "name": "account",
          "type": "address"
        }
      ],
      "name": "grantRole",
      "outputs": [],
      "stateMutability": "nonpayable",
      "type": "function"
    },
    {
      "inputs": [
        {
          "internalType": "bytes32",
          "name": "role",
          "type": "bytes32"
        },
        {
          "internalType": "address",
          "name": "account",
          "type": "address"
        }
      ],
      "name": "hasRole",
      "outputs": [
        {
          "internalType": "bool",
          "name": "",
          "type": "bool"
        }
      ],
      "stateMutability": "view",
      "type": "function"
    },
    {
      "inputs": [
        {
          "internalType": "address",
          "name": "to",
          "type": "address"
        },
        {
          "internalType": "uint256",
          "name": "amount",
          "type": "uint256"
        }
      ],
      "name": "mint",
      "outputs": [],
      "stateMutability": "nonpayable",
      "type": "function"
    },
    {
      "inputs": [],
      "name": "name",
      "outputs": [
        {
          "internalType": "string",
          "name": "",
          "type": "string"
        }
      ],
      "stateMutability": "view",
      "type": "function"
    },
    {
      "inputs": [
        {
          "internalType": "bytes32",
          "name": "role",
          "type": "bytes32"
        },
        {
          "internalType": "address",
          "name": "callerConfirmation",
          "type": "address"
        }
      ],
      "name": "renounceRole",
      "outputs": [],
      "stateMutability": "nonpayable",
      "type": "function"
    },
    {
      "inputs": [
        {
          "internalType": "bytes32",
          "name": "role",
          "type": "bytes32"
        },
        {
          "internalType": "address",
          "name": "account",
          "type": "address"
        }
      ],
      "name": "revokeRole",
      "outputs": [],
      "stateMutability": "nonpayable",
      "type": "function"
    },
    {
      "inputs": [
        {
          "internalType": "address",
          "name": "_vault",
          "type": "address"
        }
      ],
      "name": "setVault",
      "outputs": [],
      "stateMutability": "nonpayable",
      "type": "function"
    },
    {
      "inputs": [
        {
          "internalType": "bytes4",
          "name": "interfaceId",
          "type": "bytes4"
        }
      ],
      "name": "supportsInterface",
      "outputs": [
        {
          "internalType": "bool",
          "name": "",
          "type": "bool"
        }
      ],
      "stateMutability": "view",
      "type": "function"
    },
    {
      "inputs": [],
      "name": "symbol",
      "outputs": [
        {
          "internalType": "string",
          "name": "",
          "type": "string"
        }
      ],
      "stateMutability": "view",
      "type": "function"
    },
    {
      "inputs": [],
      "name": "totalStETHInterest",
      "outputs": [
        {
          "internalType": "uint256",
          "name": "",
          "type": "uint256"
        }
      ],
      "stateMutability": "view",
      "type": "function"
    },
    {
      "inputs": [],
      "name": "totalSupply",
      "outputs": [
        {
          "internalType": "uint256",
          "name": "",
          "type": "uint256"
        }
      ],
      "stateMutability": "view",
      "type": "function"
    },
    {
      "inputs": [
        {
          "internalType": "address",
          "name": "to",
          "type": "address"
        },
        {
          "internalType": "uint256",
          "name": "value",
          "type": "uint256"
        }
      ],
      "name": "transfer",
      "outputs": [
        {
          "internalType": "bool",
          "name": "",
          "type": "bool"
        }
      ],
      "stateMutability": "nonpayable",
      "type": "function"
    },
    {
      "inputs": [
        {
          "internalType": "address",
          "name": "from",
          "type": "address"
        },
        {
          "internalType": "address",
          "name": "to",
          "type": "address"
        },
        {
          "internalType": "uint256",
          "name": "value",
          "type": "uint256"
        }
      ],
      "name": "transferFrom",
      "outputs": [
        {
          "internalType": "bool",
          "name": "",
          "type": "bool"
        }
      ],
      "stateMutability": "nonpayable",
      "type": "function"
    },
    {
      "inputs": [
        {
          "internalType": "uint256",
          "name": "newRate",
          "type": "uint256"
        }
      ],
      "name": "updateExchangeRate",
      "outputs": [],
      "stateMutability": "nonpayable",
      "type": "function"
    },
    {
      "inputs": [],
      "name": "vault",
      "outputs": [
        {
          "internalType": "address",
          "name": "",
          "type": "address"
        }
      ],
      "stateMutability": "view",
      "type": "function"
    }
  ],
  "bytecode": "0x608060405234610393576112ee6020813803918261001c81610397565b93849283398101031261039357516001600160a01b038116808203610393576100456040610397565b91600f83526e09ad2dcd240a6e8c2d6cac8408aa89608b1b602084015261006c6040610397565b60058152640e6e88aa8960db1b602082015283519092906001600160401b0381116102a457600354600181811c91168015610389575b602082101461028657601f8111610326575b50602094601f82116001146102c3579481929394955f926102b8575b50508160011b915f199060031b1c1916176003555b82516001600160401b0381116102a457600454600181811c9116801561029a575b602082101461028657601f8111610223575b506020601f82116001146101c057819293945f926101b5575b50508160011b915f199060031b1c1916176004555b1561017057610154906103bc565b50670de0b6b3a7640000600755604051610e6690816104688239f35b60405162461bcd60e51b815260206004820152601f60248201527f54696d656c6f636b20616464726573732063616e6e6f74206265207a65726f006044820152606490fd5b015190505f80610131565b601f1982169060045f52805f20915f5b81811061020b575095836001959697106101f3575b505050811b01600455610146565b01515f1960f88460031b161c191690555f80806101e5565b9192602060018192868b0151815501940192016101d0565b60045f527f8a35acfbc15ff81a39ae7d344fd709f28e8600b4aa8c65c6b64bfe7fe36bd19b601f830160051c8101916020841061027c575b601f0160051c01905b8181106102715750610118565b5f8155600101610264565b909150819061025b565b634e487b7160e01b5f52602260045260245ffd5b90607f1690610106565b634e487b7160e01b5f52604160045260245ffd5b015190505f806100d0565b601f1982169560035f52805f20915f5b88811061030e575083600195969798106102f6575b505050811b016003556100e5565b01515f1960f88460031b161c191690555f80806102e8565b919260206001819286850151815501940192016102d3565b60035f527fc2575a0e9e593c00f959f8c92f12db2869c3395a3b0502d05e2516446f71f85b601f830160051c8101916020841061037f575b601f0160051c01905b81811061037457506100b4565b5f8155600101610367565b909150819061035e565b90607f16906100a2565b5f80fd5b6040519190601f01601f191682016001600160401b038111838210176102a457604052565b6001600160a01b0381165f9081525f5160206112ce5f395f51905f52602052604090205460ff16610462576001600160a01b03165f8181525f5160206112ce5f395f51905f5260205260408120805460ff191660011790553391907ff66846415d2bf9eabda9e84793ff9c0ea96d87f50fc41e66aa16469c6a442f05907f2f8788117e7eff1d82e926ec794901d17c78024a50270940304540a733656f0d9080a4600190565b505f9056fe6080806040526004361015610012575f80fd5b5f3560e01c90816301ffc9a714610b195750806306fdde0314610a47578063095ea7b3146109c557806318160ddd146109a857806323b872dd146108c9578063248a9ca3146108965780632f2ff15d14610858578063313ce5671461083d57806336568abe146107f95780633ba0b9a9146107dc57806340c10f19146107055780636817031b1461060f57806370a08231146105d8578063716eb0d11461059f57806390eff34e1461058257806391d148541461053957806395d89b411461041e5780639dc29fac14610319578063a217fddf146102ff578063a9059cbb146102ce578063b9e205ae1461022a578063d547741f146101e5578063dd62ed3e14610195578063f288a2e21461015b5763fbfa77cf1461012f575f80fd5b34610157575f366003190112610157576006546040516001600160a01b039091168152602090f35b5f80fd5b34610157575f3660031901126101575760206040517ff66846415d2bf9eabda9e84793ff9c0ea96d87f50fc41e66aa16469c6a442f058152f35b34610157576040366003190112610157576101ae610b96565b6101b6610bac565b6001600160a01b039182165f908152600160209081526040808320949093168252928352819020549051908152f35b3461015757604036600319011261015757610228600435610204610bac565b9061022361021e825f526005602052600160405f20015490565b610cc6565b610d8c565b005b346101575760203660031901126101575760043561025360018060a01b03600654163314610bc2565b6007548082106102925760407fc8d1043f24843c0a1c9251fdc30017d84e87498fbcf232af9f86816b5e182bde918151908152836020820152a1600755005b60405162461bcd60e51b8152602060048201526014602482015273526174652063616e6e6f7420646563726561736560601b6044820152606490fd5b34610157576040366003190112610157576102f46102ea610b96565b6024359033610c1c565b602060405160018152f35b34610157575f3660031901126101575760206040515f8152f35b3461015757604036600319011261015757610332610b96565b6024359061034b60018060a01b03600654163314610bc2565b6001600160a01b031680156103e35780610392575f516020610e115f395f51905f5260208361037d5f95600254610bfb565b6002555b8060025403600255604051908152a3005b805f525f60205260405f20548281106103ca576020835f945f516020610e115f395f51905f5293858752868452036040862055610381565b9063391434e360e21b5f5260045260245260445260645ffd5b60405162461bcd60e51b815260206004820152601360248201527246726f6d2063616e6e6f74206265207a65726f60681b6044820152606490fd5b34610157575f366003190112610157576040515f6004548060011c9060018116801561052f575b60208310811461051b578285529081156104ff57506001146104aa575b50819003601f01601f191681019067ffffffffffffffff8211818310176104965761049282918260405282610b6c565b0390f35b634e487b7160e01b5f52604160045260245ffd5b905060045f527f8a35acfbc15ff81a39ae7d344fd709f28e8600b4aa8c65c6b64bfe7fe36bd19b5f905b8282106104e957506020915082010182610462565b60018160209254838588010152019101906104d4565b90506020925060ff191682840152151560051b82010182610462565b634e487b7160e01b5f52602260045260245ffd5b91607f1691610445565b3461015757604036600319011261015757610552610bac565b6004355f52600560205260405f209060018060a01b03165f52602052602060ff60405f2054166040519015158152f35b34610157575f366003190112610157576020600854604051908152f35b34610157576020366003190112610157576105c560018060a01b03600654163314610bc2565b6105d3600435600854610bfb565b600855005b34610157576020366003190112610157576001600160a01b036105f9610b96565b165f525f602052602060405f2054604051908152f35b3461015757602036600319011261015757610628610b96565b335f9081527f694782f68be5f1a94b7bc9e5d3e89556d8bcf24e02f20bef99526d9dbd8b9a0b602052604090205460ff16156106ce576001600160a01b03168015610689576bffffffffffffffffffffffff60a01b60065416176006555f80f35b60405162461bcd60e51b815260206004820152601c60248201527f5661756c7420616464726573732063616e6e6f74206265207a65726f000000006044820152606490fd5b63e2517d3f60e01b5f52336004527ff66846415d2bf9eabda9e84793ff9c0ea96d87f50fc41e66aa16469c6a442f0560245260445ffd5b346101575760403660031901126101575761071e610b96565b6024359061073760018060a01b03600654163314610bc2565b6001600160a01b0316908115610797575f516020610e115f395f51905f5260205f9261076581600254610bfb565b600255841584146107825780600254036002555b604051908152a3005b84845283825260408420818154019055610779565b60405162461bcd60e51b815260206004820152601860248201527f526563697069656e742063616e6e6f74206265207a65726f00000000000000006044820152606490fd5b34610157575f366003190112610157576020600754604051908152f35b3461015757604036600319011261015757610812610bac565b336001600160a01b0382160361082e5761022890600435610d8c565b63334bd91960e11b5f5260045ffd5b34610157575f36600319011261015757602060405160128152f35b3461015757604036600319011261015757610228600435610877610bac565b9061089161021e825f526005602052600160405f20015490565b610d00565b346101575760203660031901126101575760206108c16004355f526005602052600160405f20015490565b604051908152f35b34610157576060366003190112610157576108e2610b96565b6108ea610bac565b6001600160a01b0382165f818152600160209081526040808320338452909152902054909260443592915f198110610928575b506102f49350610c1c565b83811061098d57841561097a573315610967576102f4945f52600160205260405f2060018060a01b0333165f526020528360405f20910390558461091d565b634a1406b160e11b5f525f60045260245ffd5b63e602df0560e01b5f525f60045260245ffd5b8390637dc7a0d960e11b5f523360045260245260445260645ffd5b34610157575f366003190112610157576020600254604051908152f35b34610157576040366003190112610157576109de610b96565b60243590331561097a576001600160a01b031690811561096757335f52600160205260405f20825f526020528060405f20556040519081527f8c5be1e5ebec7d5bd14f71427d1e84f3dd0314c0f7b2291e5b200ac8c7c3b92560203392a3602060405160018152f35b34610157575f366003190112610157576040515f6003548060011c90600181168015610b0f575b60208310811461051b578285529081156104ff5750600114610aba5750819003601f01601f191681019067ffffffffffffffff8211818310176104965761049282918260405282610b6c565b905060035f527fc2575a0e9e593c00f959f8c92f12db2869c3395a3b0502d05e2516446f71f85b5f905b828210610af957506020915082010182610462565b6001816020925483858801015201910190610ae4565b91607f1691610a6e565b34610157576020366003190112610157576004359063ffffffff60e01b821680920361015757602091637965db0b60e01b8114908115610b5b575b5015158152f35b6301ffc9a760e01b14905083610b54565b602060409281835280519182918282860152018484015e5f828201840152601f01601f1916010190565b600435906001600160a01b038216820361015757565b602435906001600160a01b038216820361015757565b15610bc957565b60405162461bcd60e51b815260206004820152600a60248201526913db9b1e4815985d5b1d60b21b6044820152606490fd5b91908201809211610c0857565b634e487b7160e01b5f52601160045260245ffd5b6001600160a01b0316908115610cb3576001600160a01b0316918215610ca057815f525f60205260405f2054818110610c8757815f516020610e115f395f51905f5292602092855f525f84520360405f2055845f525f825260405f20818154019055604051908152a3565b8263391434e360e21b5f5260045260245260445260645ffd5b63ec442f0560e01b5f525f60045260245ffd5b634b637e8f60e11b5f525f60045260245ffd5b5f81815260056020908152604080832033845290915290205460ff1615610cea5750565b63e2517d3f60e01b5f523360045260245260445ffd5b5f8181526005602090815260408083206001600160a01b038616845290915290205460ff16610d86575f8181526005602090815260408083206001600160a01b0395909516808452949091528120805460ff19166001179055339291907f2f8788117e7eff1d82e926ec794901d17c78024a50270940304540a733656f0d9080a4600190565b50505f90565b5f8181526005602090815260408083206001600160a01b038616845290915290205460ff1615610d86575f8181526005602090815260408083206001600160a01b0395909516808452949091528120805460ff19169055339291907ff6391f5c32d9c69d2a47ea670b442974b53935d1edc7fd64eb21e047a839171b9080a460019056feddf252ad1be2c89b69c2b068fc378daa952ba7f163c4a11628f55a4df523b3efa264697066735822122052b5d7ee49632fd1f56fdaeb9a695ced3362cdaf82acb93ca06369a7493e643064736f6c634300081c0033694782f68be5f1a94b7bc9e5d3e89556d8bcf24e02f20bef99526d9dbd8b9a0b",
  "linkReferences": {},
  "deployedLinkReferences": {},
  "immutableReferences": {},
  "inputSourceName": "project/contracts/token/MiniStETH.sol",
  "buildInfoId": "solc-0_8_28-eaef7ce24b1ae3f84e98959837dfd3e8e8d73f1a"
}