{
  "_format": "hh3-artifact-1",
  "contractName": "MiniMUSD",
  "sourceName": "contracts/token/MiniMUSD.sol",
  "abi": [
    {
      "inputs": [],
      "stateMutability": "nonpayable",
      "type": "constructor"
    },
    {
      "inputs": [
        {
          "internalType": "address",
          "name": "spender",
          "type": "address"
        },
        {
          "internalType": "uint256",
          "name": "allowance",
          "type": "uint256"
        },
        {
          "internalType": "uint256",
          "name": "needed",
          "type": "uint256"
        }
      ],
      "name": "ERC20InsufficientAllowance",
      "type": "error"
    },
    {
      "inputs": [
        {
          "internalType": "address",
          "name": "sender",
          "type": "address"
        },
        {
          "internalType": "uint256",
          "name": "balance",
          "type": "uint256"
        },
        {
          "internalType": "uint256",
          "name": "needed",
          "type": "uint256"
        }
      ],
      "name": "ERC20InsufficientBalance",
      "type": "error"
    },
    {
      "inputs": [
        {
          "internalType": "address",
          "name": "approver",
          "type": "address"
        }
      ],
      "name": "ERC20InvalidApprover",
      "type": "error"
    },
    {
      "inputs": [
        {
          "internalType": "address",
          "name": "receiver",
          "type": "address"
        }
      ],
      "name": "ERC20InvalidReceiver",
      "type": "error"
    },
    {
      "inputs": [
        {
          "internalType": "address",
          "name": "sender",
          "type": "address"
        }
      ],
      "name": "ERC20InvalidSender",
      "type": "error"
    },
    {
      "inputs": [
        {
          "internalType": "address",
          "name": "spender",
          "type": "address"
        }
      ],
      "name": "ERC20InvalidSpender",
      "type": "error"
    },
    {
      "anonymous": false,
      "inputs": [
        {
          "indexed": true,
          "internalType": "address",
          "name": "owner",
          "type": "address"
        },
        {
          "indexed": true,
          "internalType": "address",
          "name": "spender",
          "type": "address"
        },
        {
          "indexed": false,
          "internalType": "uint256",
          "name": "value",
          "type": "uint256"
        }
      ],
      "name": "Approval",
      "type": "event"
    },
    {
      "anonymous": false,
      "inputs": [
        {
          "indexed": true,
          "internalType": "address",
          "name": "from",
          "type": "address"
        },
        {
          "indexed": true,
          "internalType": "address",
          "name": "to",
          "type": "address"
        },
        {
          "indexed": false,
          "internalType": "uint256",
          "name": "value",
          "type": "uint256"
        }
      ],
      "name": "Transfer",
      "type": "event"
    },
    {
      "inputs": [
        {
          "internalType": "address",
          "name": "owner",
          "type": "address"
        },
        {
          "internalType": "address",
          "name": "spender",
          "type": "address"
        }
      ],
      "name": "allowance",
      "outputs": [
        {
          "internalType": "uint256",
          "name": "",
          "type": "uint256"
        }
      ],
      "stateMutability": "view",
      "type": "function"
    },
    {
      "inputs": [
        {
          "internalType": "address",
          "name": "spender",
          "type": "address"
        },
        {
          "internalType": "uint256",
          "name": "value",
          "type": "uint256"
        }
      ],
      "name": "approve",
      "outputs": [
        {
          "internalType": "bool",
          "name": "",
          "type": "bool"
        }
      ],
      "stateMutability": "nonpayable",
      "type": "function"
    },
    {
      "inputs": [
        {
          "internalType": "address",
          "name": "account",
          "type": "address"
        }
      ],
      "name": "balanceOf",
      "outputs": [
        {
          "internalType": "uint256",
          "name": "",
          "type": "uint256"
        }
      ],
      "stateMutability": "view",
      "type": "function"
    },
    {
      "inputs": [
        {
          "internalType": "address",
          "name": "from",
          "type": "address"
        },
        {
          "internalType": "uint256",
          "name": "amount",
          "type": "uint256"
        }
      ],
      "name": "burn",
      "outputs": [],
      "stateMutability": "nonpayable",
      "type": "function"
    },
    {
      "inputs": [],
      "name": "decimals",
      "outputs": [
        {
          "internalType": "uint8",
          "name": "",
          "type": "uint8"
        }
      ],
      "stateMutability": "view",
      "type": "function"
    },
    {
      "inputs": [
        {
          "internalType": "address",
          "name": "to",
          "type": "address"
        },
        {
          "internalType": "uint256",
          "name": "amount",
          "type": "uint256"
        }
      ],
      "name": "mint",
      "outputs": [],
      "stateMutability": "nonpayable",
      "type": "function"
    },
    {
      "inputs": [],
      "name": "name",
      "outputs": [
        {
          "internalType": "string",
          "name": "",
          "type": "string"
        }
      ],
      "stateMutability": "view",
      "type": "function"
    },
    {
      "inputs": [
        {
          "internalType": "address",
          "name": "_vault",
          "type": "address"
        }
      ],
      "name": "setVault",
      "outputs": [],
      "stateMutability": "nonpayable",
      "type": "function"
    },
    {
      "inputs": [],
      "name": "symbol",
      "outputs": [
        {
          "internalType": "string",
          "name": "",
          "type": "string"
        }
      ],
      "stateMutability": "view",
      "type": "function"
    },
    {
      "inputs": [],
      "name": "totalSupply",
      "outputs": [
        {
          "internalType": "uint256",
          "name": "",
          "type": "uint256"
        }
      ],
      "stateMutability": "view",
      "type": "function"
    },
    {
      "inputs": [
        {
          "internalType": "address",
          "name": "to",
          "type": "address"
        },
        {
          "internalType": "uint256",
          "name": "value",
          "type": "uint256"
        }
      ],
      "name": "transfer",
      "outputs": [
        {
          "internalType": "bool",
          "name": "",
          "type": "bool"
        }
      ],
      "stateMutability": "nonpayable",
      "type": "function"
    },
    {
      "inputs": [
        {
          "internalType": "address",
          "name": "from",
          "type": "address"
        },
        {
          "internalType": "address",
          "name": "to",
          "type": "address"
        },
        {
          "internalType": "uint256",
          "name": "value",
          "type": "uint256"
        }
      ],
      "name": "transferFrom",
      "outputs": [
        {
          "internalType": "bool",
          "name": "",
          "type": "bool"
        }
      ],
      "stateMutability": "nonpayable",
      "type": "function"
    },
    {
      "inputs": [],
      "name": "vault",
      "outputs": [
        {
          "internalType": "address",
          "name": "",
          "type": "address"
        }
      ],
      "stateMutability": "view",
      "type": "function"
    },
    {
      "inputs": [],
      "name": "vaultSet",
      "outputs": [
        {
          "internalType": "bool",
          "name": "",
          "type": "bool"
        }
      ],
      "stateMutability": "view",
      "type": "function"
    }
  ],
  "bytecode": "0x60806040523461031357604080519081016001600160401b038111828210176102265760409081526009825268135a5b9a48135554d160ba1b602083015280519081016001600160401b038111828210176102265760405260048152631b5554d160e21b602082015281516001600160401b03811161022657600354600181811c91168015610309575b602082101461020857601f81116102a6575b50602092601f821160011461024557928192935f9261023a575b50508160011b915f199060031b1c1916176003555b80516001600160401b03811161022657600454600181811c9116801561021c575b602082101461020857601f81116101a5575b50602091601f8211600114610145579181925f9261013a575b50508160011b915f199060031b1c1916176004555b60405161099490816103188239f35b015190505f80610116565b601f1982169260045f52805f20915f5b85811061018d57508360019510610175575b505050811b0160045561012b565b01515f1960f88460031b161c191690555f8080610167565b91926020600181928685015181550194019201610155565b60045f527f8a35acfbc15ff81a39ae7d344fd709f28e8600b4aa8c65c6b64bfe7fe36bd19b601f830160051c810191602084106101fe575b601f0160051c01905b8181106101f357506100fd565b5f81556001016101e6565b90915081906101dd565b634e487b7160e01b5f52602260045260245ffd5b90607f16906100eb565b634e487b7160e01b5f52604160045260245ffd5b015190505f806100b5565b601f1982169360035f52805f20915f5b86811061028e5750836001959610610276575b505050811b016003556100ca565b01515f1960f88460031b161c191690555f8080610268565b91926020600181928685015181550194019201610255565b60035f527fc2575a0e9e593c00f959f8c92f12db2869c3395a3b0502d05e2516446f71f85b601f830160051c810191602084106102ff575b601f0160051c01905b8181106102f4575061009b565b5f81556001016102e7565b90915081906102de565b90607f1690610089565b5f80fdfe6080806040526004361015610012575f80fd5b5f3560e01c90816306fdde031461073657508063095ea7b3146106b457806318160ddd1461069757806323b872dd146105b8578063313ce5671461059d57806340c10f19146104c35780636817031b146103f657806370a08231146103bf5780638dac07b31461039a57806395d89b411461027f5780639dc29fac14610163578063a9059cbb14610132578063dd62ed3e146100e25763fbfa77cf146100b6575f80fd5b346100de575f3660031901126100de576005546040516001600160a01b039091168152602090f35b5f80fd5b346100de5760403660031901126100de576100fb61082f565b610103610845565b6001600160a01b039182165f908152600160209081526040808320949093168252928352819020549051908152f35b346100de5760403660031901126100de5761015861014e61082f565b6024359033610894565b602060405160018152f35b346100de5760403660031901126100de5761017c61082f565b6024359061019560018060a01b0360055416331461085b565b6001600160a01b0316801561024457806101f357600254918083018093116101df5760205f51602061093f5f395f51905f52915f946002555b8060025403600255604051908152a3005b634e487b7160e01b5f52601160045260245ffd5b805f525f60205260405f205482811061022b576020835f945f51602061093f5f395f51905f52938587528684520360408620556101ce565b9063391434e360e21b5f5260045260245260445260645ffd5b60405162461bcd60e51b815260206004820152601360248201527246726f6d2063616e6e6f74206265207a65726f60681b6044820152606490fd5b346100de575f3660031901126100de576040515f6004548060011c90600181168015610390575b60208310811461037c57828552908115610360575060011461030b575b50819003601f01601f191681019067ffffffffffffffff8211818310176102f7576102f382918260405282610805565b0390f35b634e487b7160e01b5f52604160045260245ffd5b905060045f527f8a35acfbc15ff81a39ae7d344fd709f28e8600b4aa8c65c6b64bfe7fe36bd19b5f905b82821061034a575060209150820101826102c3565b6001816020925483858801015201910190610335565b90506020925060ff191682840152151560051b820101826102c3565b634e487b7160e01b5f52602260045260245ffd5b91607f16916102a6565b346100de575f3660031901126100de57602060ff60055460a01c166040519015158152f35b346100de5760203660031901126100de576001600160a01b036103e061082f565b165f525f602052602060405f2054604051908152f35b346100de5760203660031901126100de5761040f61082f565b6005549060ff8260a01c1661048a576001600160a01b03168015610445576001600160a81b031990911617600160a01b17600555005b60405162461bcd60e51b815260206004820152601c60248201527f5661756c7420616464726573732063616e6e6f74206265207a65726f000000006044820152606490fd5b60405162461bcd60e51b815260206004820152601160248201527015985d5b1d08185b1c9958591e481cd95d607a1b6044820152606490fd5b346100de5760403660031901126100de576104dc61082f565b602435906104f560018060a01b0360055416331461085b565b6001600160a01b031690811561055857600254908082018092116101df5760205f51602061093f5f395f51905f52915f93600255841584146105435780600254036002555b604051908152a3005b8484528382526040842081815401905561053a565b60405162461bcd60e51b815260206004820152601860248201527f526563697069656e742063616e6e6f74206265207a65726f00000000000000006044820152606490fd5b346100de575f3660031901126100de57602060405160128152f35b346100de5760603660031901126100de576105d161082f565b6105d9610845565b6001600160a01b0382165f818152600160209081526040808320338452909152902054909260443592915f198110610617575b506101589350610894565b83811061067c57841561066957331561065657610158945f52600160205260405f2060018060a01b0333165f526020528360405f20910390558461060c565b634a1406b160e11b5f525f60045260245ffd5b63e602df0560e01b5f525f60045260245ffd5b8390637dc7a0d960e11b5f523360045260245260445260645ffd5b346100de575f3660031901126100de576020600254604051908152f35b346100de5760403660031901126100de576106cd61082f565b602435903315610669576001600160a01b031690811561065657335f52600160205260405f20825f526020528060405f20556040519081527f8c5be1e5ebec7d5bd14f71427d1e84f3dd0314c0f7b2291e5b200ac8c7c3b92560203392a3602060405160018152f35b346100de575f3660031901126100de575f6003548060011c906001811680156107fb575b60208310811461037c5782855290811561036057506001146107a65750819003601f01601f191681019067ffffffffffffffff8211818310176102f7576102f382918260405282610805565b905060035f527fc2575a0e9e593c00f959f8c92f12db2869c3395a3b0502d05e2516446f71f85b5f905b8282106107e5575060209150820101826102c3565b60018160209254838588010152019101906107d0565b91607f169161075a565b602060409281835280519182918282860152018484015e5f828201840152601f01601f1916010190565b600435906001600160a01b03821682036100de57565b602435906001600160a01b03821682036100de57565b1561086257565b60405162461bcd60e51b815260206004820152600a60248201526913db9b1e4815985d5b1d60b21b6044820152606490fd5b6001600160a01b031690811561092b576001600160a01b031691821561091857815f525f60205260405f20548181106108ff57815f51602061093f5f395f51905f5292602092855f525f84520360405f2055845f525f825260405f20818154019055604051908152a3565b8263391434e360e21b5f5260045260245260445260645ffd5b63ec442f0560e01b5f525f60045260245ffd5b634b637e8f60e11b5f525f60045260245ffdfeddf252ad1be2c89b69c2b068fc378daa952ba7f163c4a11628f55a4df523b3efa2646970667358221220b44b399db0df76b247b45112b051facad9fa24fabb270fbc4c8716f4b0e40cbd64736f6c634300081c0033",
  "linkReferences": {},
  "deployedLinkReferences": {},
  "immutableReferences": {},
  "inputSourceName": "project/contracts/token/MiniMUSD.sol",
  "buildInfoId": "solc-0_8_28-45e533069d7ea008a8dc044339b13758f43a8f14"
}